:0A00000002080001080000DFFE22E4
:10000B00020076E4FD53890F438901758CD8758AFC
:10001B00EF75A882ED90007F93FEFB7A007008FDD0
:10002B007FE812000780EDEBF44A700A0D7F641233
:10003B000007C28C80DEAF050DEF90007F93FCAF05
:10004B00050DEF93F508D28CE5086009B2A5AF0456
:10005B0012006480F3C28C80BBEF75F003A4FFAE7B
:10006B00F0EF1F70011E144E70F722758CD8758A35
:10007B00EF15083218301C1020401C1018102010DF
:10008B001C1018401C2020201C2018202080FF2032
:10009B00301C10182015201C202020264020202B3F
:1000AB0020262020203080FF20201C10181020201C
:1000BB0026202B2030202B4020201C101810202015
:1000CB0026202B2030202B4020301C1018201520F0
:1000DB001C202020264020202B2026202020308072
:1000EB0020301C1020101C10202026202B2030200C
:1000FB002B4020151F0520101C10202026202B2004
:10010B0030202B4020301C10182015201C202020C4
:10011B00264020202B2026202020303020301C1081
:10012B0018401C2020202640136018201540134037
:03013B0018800029
:10080000787FE4F6D8FD75810802084702000EE4FF
:1008100093A3F8E493A34003F68001F208DFF48089
:1008200029E493A3F85407240CC8C333C4540F44D9
:1008300020C8834004F456800146F6DFE4800B01B3
:1008400002040810204080900003E47E019360BC05
:10085000A3FF543F30E509541FFEE493A360010E4B
:10086000CF54C025E060A840B8E493A3FAE493A372
:10087000F8E493A3C8C582C8CAC583CAF0A3C8C593
:0C08800082C8CAC583CADFE9DEE780BE7B
:00000001FF
